{
  "_format": "hh-sol-artifact-1",
  "contractName": "AnonTwitter",
  "sourceName": "contracts/AnonTwitter.sol",
  "abi": [
    {
      "inputs": [],
      "stateMutability": "nonpayable",
      "type": "constructor"
    },
    {
      "inputs": [
        {
          "internalType": "string",
          "name": "_msg",
          "type": "string"
        }
      ],
      "name": "createTweet",
      "outputs": [
        {
          "internalType": "bool",
          "name": "success",
          "type": "bool"
        }
      ],
      "stateMutability": "nonpayable",
      "type": "function"
    },
    {
      "inputs": [],
      "name": "getAllTweets",
      "outputs": [
        {
          "components": [
            {
              "internalType": "string",
              "name": "message",
              "type": "string"
            },
            {
              "internalType": "uint256",
              "name": "time",
              "type": "uint256"
            }
          ],
          "internalType": "struct AnonTwitter.Tweet[]",
          "name": "",
          "type": "tuple[]"
        }
      ],
      "stateMutability": "view",
      "type": "function"
    },
    {
      "inputs": [
        {
          "internalType": "uint256",
          "name": "num",
          "type": "uint256"
        }
      ],
      "name": "getTweet",
      "outputs": [
        {
          "components": [
            {
              "internalType": "string",
              "name": "message",
              "type": "string"
            },
            {
              "internalType": "uint256",
              "name": "time",
              "type": "uint256"
            }
          ],
          "internalType": "struct AnonTwitter.Tweet",
          "name": "",
          "type": "tuple"
        }
      ],
      "stateMutability": "view",
      "type": "function"
    }
  ],
  "bytecode": "0x608060405234801561001057600080fd5b5060006040518060400160405280604051806080016040528060468152602001610a8a6046913981526020014281525090806001815401808255809150506001900390600052602060002090600202016000909190919091506000820151816000019080519060200190610085929190610097565b5060208201518160010155505061019b565b8280546100a390610169565b90600052602060002090601f0160209004810192826100c5576000855561010c565b82601f106100de57805160ff191683800117855561010c565b8280016001018555821561010c579182015b8281111561010b5782518255916020019190600101906100f0565b5b509050610119919061011d565b5090565b5b8082111561013657600081600090555060010161011e565b5090565b7f4e487b7100000000000000000000000000000000000000000000000000000000600052602260045260246000fd5b6000600282049050600182168061018157607f821691505b602082108114156101955761019461013a565b5b50919050565b6108e0806101aa6000396000f3fe608060405234801561001057600080fd5b50600436106100415760003560e01c806353256135146100465780637c9cd2bc14610064578063c3ad5ecb14610094575b600080fd5b61004e6100c4565b60405161005b9190610578565b60405180910390f35b61007e600480360381019061007991906106e3565b6101bf565b60405161008b9190610747565b60405180910390f35b6100ae60048036038101906100a9919061078e565b610232565b6040516100bb91906107f8565b60405180910390f35b60606000805480602002602001604051908101604052809291908181526020016000905b828210156101b6578382906000526020600020906002020160405180604001604052908160008201805461011b90610849565b80601f016020809104026020016040519081016040528092919081815260200182805461014790610849565b80156101945780601f1061016957610100808354040283529160200191610194565b820191906000526020600020905b81548152906001019060200180831161017757829003601f168201915b50505050508152602001600182015481525050815260200190600101906100e8565b50505050905090565b6000806040518060400160405280848152602001428152509080600181540180825580915050600190039060005260206000209060020201600090919091909150600082015181600001908051906020019061021c92919061030a565b5060208201518160010155505060019050919050565b61023a610390565b6000828154811061024e5761024d61087b565b5b906000526020600020906002020160405180604001604052908160008201805461027790610849565b80601f01602080910402602001604051908101604052809291908181526020018280546102a390610849565b80156102f05780601f106102c5576101008083540402835291602001916102f0565b820191906000526020600020905b8154815290600101906020018083116102d357829003601f168201915b505050505081526020016001820154815250509050919050565b82805461031690610849565b90600052602060002090601f016020900481019282610338576000855561037f565b82601f1061035157805160ff191683800117855561037f565b8280016001018555821561037f579182015b8281111561037e578251825591602001919060010190610363565b5b50905061038c91906103aa565b5090565b604051806040016040528060608152602001600081525090565b5b808211156103c35760008160009055506001016103ab565b5090565b600081519050919050565b600082825260208201905092915050565b6000819050602082019050919050565b600081519050919050565b600082825260208201905092915050565b60005b8381101561042d578082015181840152602081019050610412565b8381111561043c576000848401525b50505050565b6000601f19601f8301169050919050565b600061045e826103f3565b61046881856103fe565b935061047881856020860161040f565b61048181610442565b840191505092915050565b6000819050919050565b61049f8161048c565b82525050565b600060408301600083015184820360008601526104c28282610453565b91505060208301516104d76020860182610496565b508091505092915050565b60006104ee83836104a5565b905092915050565b6000602082019050919050565b600061050e826103c7565b61051881856103d2565b93508360208202850161052a856103e3565b8060005b85811015610566578484038952815161054785826104e2565b9450610552836104f6565b925060208a0199505060018101905061052e565b50829750879550505050505092915050565b600060208201905081810360008301526105928184610503565b905092915050565b6000604051905090565b600080fd5b600080fd5b600080fd5b600080fd5b7f4e487b7100000000000000000000000000000000000000000000000000000000600052604160045260246000fd5b6105f082610442565b810181811067ffffffffffffffff8211171561060f5761060e6105b8565b5b80604052505050565b600061062261059a565b905061062e82826105e7565b919050565b600067ffffffffffffffff82111561064e5761064d6105b8565b5b61065782610442565b9050602081019050919050565b82818337600083830152505050565b600061068661068184610633565b610618565b9050828152602081018484840111156106a2576106a16105b3565b5b6106ad848285610664565b509392505050565b600082601f8301126106ca576106c96105ae565b5b81356106da848260208601610673565b91505092915050565b6000602082840312156106f9576106f86105a4565b5b600082013567ffffffffffffffff811115610717576107166105a9565b5b610723848285016106b5565b91505092915050565b60008115159050919050565b6107418161072c565b82525050565b600060208201905061075c6000830184610738565b92915050565b61076b8161048c565b811461077657600080fd5b50565b60008135905061078881610762565b92915050565b6000602082840312156107a4576107a36105a4565b5b60006107b284828501610779565b91505092915050565b600060408301600083015184820360008601526107d88282610453565b91505060208301516107ed6020860182610496565b508091505092915050565b6000602082019050818103600083015261081281846107bb565b905092915050565b7f4e487b7100000000000000000000000000000000000000000000000000000000600052602260045260246000fd5b6000600282049050600182168061086157607f821691505b602082108114156108755761087461081a565b5b50919050565b7f4e487b7100000000000000000000000000000000000000000000000000000000600052603260045260246000fdfea264697066735822122068c9744134927577508fd90835a5f2baee276f98933346da98b8ecd93daa8e6964736f6c6343000809003347657474696e6720537461727465642077697468206c6561726e696e6720657468657265756d20616e6420736f6c69646974792066726f6d207175657374626f6f6b20617070",
  "linkReferences": {},
  "deployedLinkReferences": {}
}