{
  "_format": "hh-sol-artifact-1",
  "contractName": "ICO",
  "sourceName": "contracts/ICO.sol",
  "abi": [
    {
      "inputs": [
        {
          "internalType": "string",
          "name": "__name",
          "type": "string"
        },
        {
          "internalType": "string",
          "name": "symbols",
          "type": "string"
        },
        {
          "internalType": "address payable",
          "name": "_deposit",
          "type": "address"
        },
        {
          "internalType": "uint256",
          "name": "timend",
          "type": "uint256"
        }
      ],
      "stateMutability": "nonpayable",
      "type": "constructor"
    },
    {
      "anonymous": false,
      "inputs": [
        {
          "indexed": true,
          "internalType": "address",
          "name": "_from",
          "type": "address"
        },
        {
          "indexed": true,
          "internalType": "address",
          "name": "_to",
          "type": "address"
        },
        {
          "indexed": false,
          "internalType": "uint256",
          "name": "_value",
          "type": "uint256"
        }
      ],
      "name": "Approval",
      "type": "event"
    },
    {
      "anonymous": false,
      "inputs": [
        {
          "indexed": true,
          "internalType": "address",
          "name": "_from",
          "type": "address"
        },
        {
          "indexed": true,
          "internalType": "address",
          "name": "_to",
          "type": "address"
        },
        {
          "indexed": false,
          "internalType": "uint256",
          "name": "_value",
          "type": "uint256"
        }
      ],
      "name": "Transfer",
      "type": "event"
    },
    {
      "inputs": [
        {
          "internalType": "address",
          "name": "_owner",
          "type": "address"
        },
        {
          "internalType": "address",
          "name": "_spender",
          "type": "address"
        }
      ],
      "name": "allowance",
      "outputs": [
        {
          "internalType": "uint256",
          "name": "",
          "type": "uint256"
        }
      ],
      "stateMutability": "view",
      "type": "function"
    },
    {
      "inputs": [
        {
          "internalType": "address",
          "name": "_spender",
          "type": "address"
        },
        {
          "internalType": "uint256",
          "name": "_value",
          "type": "uint256"
        }
      ],
      "name": "approve",
      "outputs": [
        {
          "internalType": "bool",
          "name": "",
          "type": "bool"
        }
      ],
      "stateMutability": "nonpayable",
      "type": "function"
    },
    {
      "inputs": [
        {
          "internalType": "address",
          "name": "_owner",
          "type": "address"
        }
      ],
      "name": "balanceOf",
      "outputs": [
        {
          "internalType": "uint256",
          "name": "",
          "type": "uint256"
        }
      ],
      "stateMutability": "view",
      "type": "function"
    },
    {
      "inputs": [
        {
          "internalType": "address",
          "name": "_to",
          "type": "address"
        },
        {
          "internalType": "uint256",
          "name": "_value",
          "type": "uint256"
        }
      ],
      "name": "burn",
      "outputs": [
        {
          "internalType": "bool",
          "name": "success",
          "type": "bool"
        }
      ],
      "stateMutability": "nonpayable",
      "type": "function"
    },
    {
      "inputs": [],
      "name": "capital",
      "outputs": [
        {
          "internalType": "uint256",
          "name": "",
          "type": "uint256"
        }
      ],
      "stateMutability": "view",
      "type": "function"
    },
    {
      "inputs": [],
      "name": "decimals",
      "outputs": [
        {
          "internalType": "uint8",
          "name": "",
          "type": "uint8"
        }
      ],
      "stateMutability": "view",
      "type": "function"
    },
    {
      "inputs": [
        {
          "internalType": "address",
          "name": "_spender",
          "type": "address"
        },
        {
          "internalType": "uint256",
          "name": "_value",
          "type": "uint256"
        }
      ],
      "name": "decreaseAllowances",
      "outputs": [
        {
          "internalType": "bool",
          "name": "",
          "type": "bool"
        }
      ],
      "stateMutability": "nonpayable",
      "type": "function"
    },
    {
      "inputs": [],
      "name": "depositer",
      "outputs": [
        {
          "internalType": "address payable",
          "name": "",
          "type": "address"
        }
      ],
      "stateMutability": "view",
      "type": "function"
    },
    {
      "inputs": [],
      "name": "endStart",
      "outputs": [
        {
          "internalType": "uint256",
          "name": "",
          "type": "uint256"
        }
      ],
      "stateMutability": "view",
      "type": "function"
    },
    {
      "inputs": [
        {
          "internalType": "address",
          "name": "_spender",
          "type": "address"
        },
        {
          "internalType": "uint256",
          "name": "_value",
          "type": "uint256"
        }
      ],
      "name": "increaseAllowances",
      "outputs": [
        {
          "internalType": "bool",
          "name": "",
          "type": "bool"
        }
      ],
      "stateMutability": "nonpayable",
      "type": "function"
    },
    {
      "inputs": [],
      "name": "invest",
      "outputs": [
        {
          "internalType": "bool",
          "name": "",
          "type": "bool"
        }
      ],
      "stateMutability": "payable",
      "type": "function"
    },
    {
      "inputs": [],
      "name": "mininvestment",
      "outputs": [
        {
          "internalType": "uint256",
          "name": "",
          "type": "uint256"
        }
      ],
      "stateMutability": "view",
      "type": "function"
    },
    {
      "inputs": [
        {
          "internalType": "address",
          "name": "_to",
          "type": "address"
        },
        {
          "internalType": "uint256",
          "name": "_value",
          "type": "uint256"
        }
      ],
      "name": "mint",
      "outputs": [
        {
          "internalType": "bool",
          "name": "success",
          "type": "bool"
        }
      ],
      "stateMutability": "nonpayable",
      "type": "function"
    },
    {
      "inputs": [],
      "name": "name",
      "outputs": [
        {
          "internalType": "string",
          "name": "",
          "type": "string"
        }
      ],
      "stateMutability": "view",
      "type": "function"
    },
    {
      "inputs": [],
      "name": "raisedAmt",
      "outputs": [
        {
          "internalType": "uint256",
          "name": "",
          "type": "uint256"
        }
      ],
      "stateMutability": "view",
      "type": "function"
    },
    {
      "inputs": [],
      "name": "salesStart",
      "outputs": [
        {
          "internalType": "uint256",
          "name": "",
          "type": "uint256"
        }
      ],
      "stateMutability": "view",
      "type": "function"
    },
    {
      "inputs": [],
      "name": "symbol",
      "outputs": [
        {
          "internalType": "string",
          "name": "",
          "type": "string"
        }
      ],
      "stateMutability": "view",
      "type": "function"
    },
    {
      "inputs": [],
      "name": "totalSupply",
      "outputs": [
        {
          "internalType": "uint256",
          "name": "",
          "type": "uint256"
        }
      ],
      "stateMutability": "view",
      "type": "function"
    },
    {
      "inputs": [
        {
          "internalType": "address",
          "name": "_to",
          "type": "address"
        },
        {
          "internalType": "uint256",
          "name": "_value",
          "type": "uint256"
        }
      ],
      "name": "transfer",
      "outputs": [
        {
          "internalType": "bool",
          "name": "",
          "type": "bool"
        }
      ],
      "stateMutability": "nonpayable",
      "type": "function"
    },
    {
      "inputs": [
        {
          "internalType": "address",
          "name": "_from",
          "type": "address"
        },
        {
          "internalType": "address",
          "name": "_to",
          "type": "address"
        },
        {
          "internalType": "uint256",
          "name": "_value",
          "type": "uint256"
        }
      ],
      "name": "transferFrom",
      "outputs": [
        {
          "internalType": "bool",
          "name": "success",
          "type": "bool"
        }
      ],
      "stateMutability": "nonpayable",
      "type": "function"
    },
    {
      "stateMutability": "payable",
      "type": "receive"
    }
  ],
  "bytecode": "0x608060405266038d7ea4c68000600055681043561a882930000060015542600255662386f26fc100006004553480156200003857600080fd5b50604051620027603803806200276083398181016040528101906200005e91906200044a565b81600660006101000a81548173ffffffffffffffffffffffffffffffffffffffff021916908373ffffffffffffffffffffffffffffffffffffffff1602179055506005600a60006101000a81548160ff021916908360ff16021790555064174876e8006009819055508360079080519060200190620000df9291906200015d565b508260089080519060200190620000f89291906200015d565b50600954600b60008473ffffffffffffffffffffffffffffffffffffffff1673ffffffffffffffffffffffffffffffffffffffff1681526020019081526020016000208190555080426200014d919062000529565b60038190555050505050620005eb565b8280546200016b90620005b5565b90600052602060002090601f0160209004810192826200018f5760008555620001db565b82601f10620001aa57805160ff1916838001178555620001db565b82800160010185558215620001db579182015b82811115620001da578251825591602001919060010190620001bd565b5b509050620001ea9190620001ee565b5090565b5b8082111562000209576000816000905550600101620001ef565b5090565b6000604051905090565b600080fd5b600080fd5b600080fd5b600080fd5b6000601f19601f8301169050919050565b7f4e487b7100000000000000000000000000000000000000000000000000000000600052604160045260246000fd5b62000276826200022b565b810181811067ffffffffffffffff821117156200029857620002976200023c565b5b80604052505050565b6000620002ad6200020d565b9050620002bb82826200026b565b919050565b600067ffffffffffffffff821115620002de57620002dd6200023c565b5b620002e9826200022b565b9050602081019050919050565b60005b8381101562000316578082015181840152602081019050620002f9565b8381111562000326576000848401525b50505050565b6000620003436200033d84620002c0565b620002a1565b90508281526020810184848401111562000362576200036162000226565b5b6200036f848285620002f6565b509392505050565b600082601f8301126200038f576200038e62000221565b5b8151620003a18482602086016200032c565b91505092915050565b600073ffffffffffffffffffffffffffffffffffffffff82169050919050565b6000620003d782620003aa565b9050919050565b620003e981620003ca565b8114620003f557600080fd5b50565b6000815190506200040981620003de565b92915050565b6000819050919050565b62000424816200040f565b81146200043057600080fd5b50565b600081519050620004448162000419565b92915050565b6000806000806080858703121562000467576200046662000217565b5b600085015167ffffffffffffffff8111156200048857620004876200021c565b5b620004968782880162000377565b945050602085015167ffffffffffffffff811115620004ba57620004b96200021c565b5b620004c88782880162000377565b9350506040620004db87828801620003f8565b9250506060620004ee8782880162000433565b91505092959194509250565b7f4e487b7100000000000000000000000000000000000000000000000000000000600052601160045260246000fd5b600062000536826200040f565b915062000543836200040f565b9250827fffffffffffffffffffffffffffffffffffffffffffffffffffffffffffffffff038211156200057b576200057a620004fa565b5b828201905092915050565b7f4e487b7100000000000000000000000000000000000000000000000000000000600052602260045260246000fd5b60006002820490506001821680620005ce57607f821691505b60208210811415620005e557620005e462000586565b5b50919050565b61216580620005fb6000396000f3fe6080604052600436106101235760003560e01c80637ef2ed0b116100a0578063c6067ce311610064578063c6067ce31461043b578063d0005aa414610478578063d211fd18146104a3578063dd62ed3e146104ce578063e8b5e51f1461050b57610133565b80637ef2ed0b1461032e57806395d89b411461036b5780639dc29fac14610396578063a9059cbb146103d3578063a9883aa21461041057610133565b8063313ce567116100e7578063313ce567146102335780633ece2b4f1461025e57806340c10f191461028957806370a08231146102c6578063734afff31461030357610133565b806306fdde0314610138578063095ea7b31461016357806318160ddd146101a057806323b872dd146101cb5780632c1ba8391461020857610133565b3661013357610130610529565b50005b600080fd5b34801561014457600080fd5b5061014d610819565b60405161015a91906117e5565b60405180910390f35b34801561016f57600080fd5b5061018a600480360381019061018591906118a0565b6108ab565b60405161019791906118fb565b60405180910390f35b3480156101ac57600080fd5b506101b5610a1f565b6040516101c29190611925565b60405180910390f35b3480156101d757600080fd5b506101f260048036038101906101ed9190611940565b610a29565b6040516101ff91906118fb565b60405180910390f35b34801561021457600080fd5b5061021d610caf565b60405161022a91906119b4565b60405180910390f35b34801561023f57600080fd5b50610248610cd5565b60405161025591906119eb565b60405180910390f35b34801561026a57600080fd5b50610273610cec565b6040516102809190611925565b60405180910390f35b34801561029557600080fd5b506102b060048036038101906102ab91906118a0565b610cf2565b6040516102bd91906118fb565b60405180910390f35b3480156102d257600080fd5b506102ed60048036038101906102e89190611a06565b610e42565b6040516102fa9190611925565b60405180910390f35b34801561030f57600080fd5b50610318610e8b565b6040516103259190611925565b60405180910390f35b34801561033a57600080fd5b50610355600480360381019061035091906118a0565b610e91565b60405161036291906118fb565b60405180910390f35b34801561037757600080fd5b5061038061101c565b60405161038d91906117e5565b60405180910390f35b3480156103a257600080fd5b506103bd60048036038101906103b891906118a0565b6110ae565b6040516103ca91906118fb565b60405180910390f35b3480156103df57600080fd5b506103fa60048036038101906103f591906118a0565b611280565b60405161040791906118fb565b60405180910390f35b34801561041c57600080fd5b5061042561141f565b6040516104329190611925565b60405180910390f35b34801561044757600080fd5b50610462600480360381019061045d91906118a0565b611425565b60405161046f91906118fb565b60405180910390f35b34801561048457600080fd5b5061048d6116b9565b60405161049a9190611925565b60405180910390f35b3480156104af57600080fd5b506104b86116bf565b6040516104c59190611925565b60405180910390f35b3480156104da57600080fd5b506104f560048036038101906104f09190611a33565b6116c5565b6040516105029190611925565b60405180910390f35b610513610529565b60405161052091906118fb565b60405180910390f35b60006001546005543461053c9190611aa2565b111561057d576040517f08c379a000000000000000000000000000000000000000000000000000000000815260040161057490611b44565b60405180910390fd5b60025442106105c1576040517f08c379a00000000000000000000000000000000000000000000000000000000081526004016105b890611bb0565b60405180910390fd5b6003544211610605576040517f08c379a00000000000000000000000000000000000000000000000000000000081526004016105fc90611c1c565b60405180910390fd5b60045434101561064a576040517f08c379a000000000000000000000000000000000000000000000000000000000815260040161064190611cae565b60405180910390fd5b60008054346106599190611cfd565b905080600b60003373ffffffffffffffffffffffffffffffffffffffff1673ffffffffffffffffffffffffffffffffffffffff16815260200190815260200160002060008282546106aa9190611aa2565b9250508190555080600b6000600660009054906101000a900473ffffffffffffffffffffffffffffffffffffffff1673ffffffffffffffffffffffffffffffffffffffff1673ffffffffffffffffffffffffffffffffffffffff16815260200190815260200160002060008282546107229190611d2e565b92505081905550346005600082825461073b9190611aa2565b925050819055503373ffffffffffffffffffffffffffffffffffffffff16600073ffffffffffffffffffffffffffffffffffffffff167fddf252ad1be2c89b69c2b068fc378daa952ba7f163c4a11628f55a4df523b3ef836040516107a09190611925565b60405180910390a3600660009054906101000a900473ffffffffffffffffffffffffffffffffffffffff1673ffffffffffffffffffffffffffffffffffffffff166108fc349081150290604051600060405180830381858888f19350505050158015610810573d6000803e3d6000fd5b50600191505090565b60606007805461082890611d91565b80601f016020809104026020016040519081016040528092919081815260200182805461085490611d91565b80156108a15780601f10610876576101008083540402835291602001916108a1565b820191906000526020600020905b81548152906001019060200180831161088457829003601f168201915b5050505050905090565b600081600b60003373ffffffffffffffffffffffffffffffffffffffff1673ffffffffffffffffffffffffffffffffffffffff16815260200190815260200160002054101561092f576040517f08c379a000000000000000000000000000000000000000000000000000000000815260040161092690611e35565b60405180910390fd5b81600c60003373ffffffffffffffffffffffffffffffffffffffff1673ffffffffffffffffffffffffffffffffffffffff16815260200190815260200160002060008573ffffffffffffffffffffffffffffffffffffffff1673ffffffffffffffffffffffffffffffffffffffff168152602001908152602001600020819055508273ffffffffffffffffffffffffffffffffffffffff163373ffffffffffffffffffffffffffffffffffffffff167f8c5be1e5ebec7d5bd14f71427d1e84f3dd0314c0f7b2291e5b200ac8c7c3b92584604051610a0d9190611925565b60405180910390a36001905092915050565b6000600954905090565b600081600c60008673ffffffffffffffffffffffffffffffffffffffff1673ffffffffffffffffffffffffffffffffffffffff16815260200190815260200160002060008573ffffffffffffffffffffffffffffffffffffffff1673ffffffffffffffffffffffffffffffffffffffff168152602001908152602001600020541015610ab457600080fd5b81600b60008673ffffffffffffffffffffffffffffffffffffffff1673ffffffffffffffffffffffffffffffffffffffff168152602001908152602001600020541015610b0057600080fd5b81600b60008673ffffffffffffffffffffffffffffffffffffffff1673ffffffffffffffffffffffffffffffffffffffff1681526020019081526020016000206000828254610b4f9190611d2e565b9250508190555081600b60008573ffffffffffffffffffffffffffffffffffffffff1673ffffffffffffffffffffffffffffffffffffffff1681526020019081526020016000206000828254610ba59190611aa2565b9250508190555081600c60008673ffffffffffffffffffffffffffffffffffffffff1673ffffffffffffffffffffffffffffffffffffffff16815260200190815260200160002060008573ffffffffffffffffffffffffffffffffffffffff1673ffffffffffffffffffffffffffffffffffffffff1681526020019081526020016000206000828254610c389190611d2e565b925050819055508273ffffffffffffffffffffffffffffffffffffffff168473ffffffffffffffffffffffffffffffffffffffff167fddf252ad1be2c89b69c2b068fc378daa952ba7f163c4a11628f55a4df523b3ef84604051610c9c9190611925565b60405180910390a3600190509392505050565b600660009054906101000a900473ffffffffffffffffffffffffffffffffffffffff1681565b6000600a60009054906101000a900460ff16905090565b60055481565b60008073ffffffffffffffffffffffffffffffffffffffff168373ffffffffffffffffffffffffffffffffffffffff161415610d63576040517f08c379a0000000000000000000000000000000000000000000000000000000008152600401610d5a90611ec7565b60405180910390fd5b8160096000828254610d759190611aa2565b9250508190555081600b60008573ffffffffffffffffffffffffffffffffffffffff1673ffffffffffffffffffffffffffffffffffffffff1681526020019081526020016000206000828254610dcb9190611aa2565b925050819055508273ffffffffffffffffffffffffffffffffffffffff16600073ffffffffffffffffffffffffffffffffffffffff167fddf252ad1be2c89b69c2b068fc378daa952ba7f163c4a11628f55a4df523b3ef84604051610e309190611925565b60405180910390a36001905092915050565b6000600b60008373ffffffffffffffffffffffffffffffffffffffff1673ffffffffffffffffffffffffffffffffffffffff168152602001908152602001600020549050919050565b60045481565b600081600c60003373ffffffffffffffffffffffffffffffffffffffff1673ffffffffffffffffffffffffffffffffffffffff16815260200190815260200160002060008573ffffffffffffffffffffffffffffffffffffffff1673ffffffffffffffffffffffffffffffffffffffff1681526020019081526020016000206000828254610f1f9190611d2e565b925050819055508273ffffffffffffffffffffffffffffffffffffffff163373ffffffffffffffffffffffffffffffffffffffff167f8c5be1e5ebec7d5bd14f71427d1e84f3dd0314c0f7b2291e5b200ac8c7c3b92584600c60003373ffffffffffffffffffffffffffffffffffffffff1673ffffffffffffffffffffffffffffffffffffffff16815260200190815260200160002060008873ffffffffffffffffffffffffffffffffffffffff1673ffffffffffffffffffffffffffffffffffffffff16815260200190815260200160002054610ffd9190611d2e565b60405161100a9190611925565b60405180910390a36001905092915050565b60606008805461102b90611d91565b80601f016020809104026020016040519081016040528092919081815260200182805461105790611d91565b80156110a45780601f10611079576101008083540402835291602001916110a4565b820191906000526020600020905b81548152906001019060200180831161108757829003601f168201915b5050505050905090565b60008073ffffffffffffffffffffffffffffffffffffffff168373ffffffffffffffffffffffffffffffffffffffff16141561111f576040517f08c379a000000000000000000000000000000000000000000000000000000000815260040161111690611f59565b60405180910390fd5b81600b60008573ffffffffffffffffffffffffffffffffffffffff1673ffffffffffffffffffffffffffffffffffffffff1681526020019081526020016000205411156111a1576040517f08c379a000000000000000000000000000000000000000000000000000000000815260040161119890611feb565b60405180910390fd5b81600b60008573ffffffffffffffffffffffffffffffffffffffff1673ffffffffffffffffffffffffffffffffffffffff16815260200190815260200160002060008282546111f09190611d2e565b9250508190555081600960008282546112099190611d2e565b92505081905550600073ffffffffffffffffffffffffffffffffffffffff168373ffffffffffffffffffffffffffffffffffffffff167fddf252ad1be2c89b69c2b068fc378daa952ba7f163c4a11628f55a4df523b3ef8460405161126e9190611925565b60405180910390a36001905092915050565b600081600b60003373ffffffffffffffffffffffffffffffffffffffff1673ffffffffffffffffffffffffffffffffffffffff168152602001908152602001600020541015611304576040517f08c379a00000000000000000000000000000000000000000000000000000000081526004016112fb9061207d565b60405180910390fd5b81600b60003373ffffffffffffffffffffffffffffffffffffffff1673ffffffffffffffffffffffffffffffffffffffff16815260200190815260200160002060008282546113539190611d2e565b9250508190555081600b60008573ffffffffffffffffffffffffffffffffffffffff1673ffffffffffffffffffffffffffffffffffffffff16815260200190815260200160002060008282546113a99190611aa2565b925050819055508273ffffffffffffffffffffffffffffffffffffffff163373ffffffffffffffffffffffffffffffffffffffff167fddf252ad1be2c89b69c2b068fc378daa952ba7f163c4a11628f55a4df523b3ef8460405161140d9190611925565b60405180910390a36001905092915050565b60035481565b600081600c60003373ffffffffffffffffffffffffffffffffffffffff1673ffffffffffffffffffffffffffffffffffffffff16815260200190815260200160002060008573ffffffffffffffffffffffffffffffffffffffff1673ffffffffffffffffffffffffffffffffffffffff168152602001908152602001600020546114af9190611aa2565b600b60003373ffffffffffffffffffffffffffffffffffffffff1673ffffffffffffffffffffffffffffffffffffffff168152602001908152602001600020541015611530576040517f08c379a00000000000000000000000000000000000000000000000000000000081526004016115279061210f565b60405180910390fd5b81600c60003373ffffffffffffffffffffffffffffffffffffffff1673ffffffffffffffffffffffffffffffffffffffff16815260200190815260200160002060008573ffffffffffffffffffffffffffffffffffffffff1673ffffffffffffffffffffffffffffffffffffffff16815260200190815260200160002060008282546115bc9190611aa2565b925050819055508273ffffffffffffffffffffffffffffffffffffffff163373ffffffffffffffffffffffffffffffffffffffff167f8c5be1e5ebec7d5bd14f71427d1e84f3dd0314c0f7b2291e5b200ac8c7c3b92584600c60003373ffffffffffffffffffffffffffffffffffffffff1673ffffffffffffffffffffffffffffffffffffffff16815260200190815260200160002060008873ffffffffffffffffffffffffffffffffffffffff1673ffffffffffffffffffffffffffffffffffffffff1681526020019081526020016000205461169a9190611aa2565b6040516116a79190611925565b60405180910390a36001905092915050565b60025481565b60015481565b6000600c60008473ffffffffffffffffffffffffffffffffffffffff1673ffffffffffffffffffffffffffffffffffffffff16815260200190815260200160002060008373ffffffffffffffffffffffffffffffffffffffff1673ffffffffffffffffffffffffffffffffffffffff16815260200190815260200160002054905092915050565b600081519050919050565b600082825260208201905092915050565b60005b8381101561178657808201518184015260208101905061176b565b83811115611795576000848401525b50505050565b6000601f19601f8301169050919050565b60006117b78261174c565b6117c18185611757565b93506117d1818560208601611768565b6117da8161179b565b840191505092915050565b600060208201905081810360008301526117ff81846117ac565b905092915050565b600080fd5b600073ffffffffffffffffffffffffffffffffffffffff82169050919050565b60006118378261180c565b9050919050565b6118478161182c565b811461185257600080fd5b50565b6000813590506118648161183e565b92915050565b6000819050919050565b61187d8161186a565b811461188857600080fd5b50565b60008135905061189a81611874565b92915050565b600080604083850312156118b7576118b6611807565b5b60006118c585828601611855565b92505060206118d68582860161188b565b9150509250929050565b60008115159050919050565b6118f5816118e0565b82525050565b600060208201905061191060008301846118ec565b92915050565b61191f8161186a565b82525050565b600060208201905061193a6000830184611916565b92915050565b60008060006060848603121561195957611958611807565b5b600061196786828701611855565b935050602061197886828701611855565b92505060406119898682870161188b565b9150509250925092565b600061199e8261180c565b9050919050565b6119ae81611993565b82525050565b60006020820190506119c960008301846119a5565b92915050565b600060ff82169050919050565b6119e5816119cf565b82525050565b6000602082019050611a0060008301846119dc565b92915050565b600060208284031215611a1c57611a1b611807565b5b6000611a2a84828501611855565b91505092915050565b60008060408385031215611a4a57611a49611807565b5b6000611a5885828601611855565b9250506020611a6985828601611855565b9150509250929050565b7f4e487b7100000000000000000000000000000000000000000000000000000000600052601160045260246000fd5b6000611aad8261186a565b9150611ab88361186a565b9250827fffffffffffffffffffffffffffffffffffffffffffffffffffffffffffffffff03821115611aed57611aec611a73565b5b828201905092915050565b7f576520646f6e3b7420616363657074206d6f726520746f6b656e730000000000600082015250565b6000611b2e601b83611757565b9150611b3982611af8565b602082019050919050565b60006020820190508181036000830152611b5d81611b21565b9050919050565b7f53616c6520697320476f696e6720746f20537461727420536f6f6e2021000000600082015250565b6000611b9a601d83611757565b9150611ba582611b64565b602082019050919050565b60006020820190508181036000830152611bc981611b8d565b9050919050565b7f53616c6520697320456e64656400000000000000000000000000000000000000600082015250565b6000611c06600d83611757565b9150611c1182611bd0565b602082019050919050565b60006020820190508181036000830152611c3581611bf9565b9050919050565b7f446f6e7427204d617463682074686520496e766573746d656e7420636170697460008201527f616c000000000000000000000000000000000000000000000000000000000000602082015250565b6000611c98602283611757565b9150611ca382611c3c565b604082019050919050565b60006020820190508181036000830152611cc781611c8b565b9050919050565b7f4e487b7100000000000000000000000000000000000000000000000000000000600052601260045260246000fd5b6000611d088261186a565b9150611d138361186a565b925082611d2357611d22611cce565b5b828204905092915050565b6000611d398261186a565b9150611d448361186a565b925082821015611d5757611d56611a73565b5b828203905092915050565b7f4e487b7100000000000000000000000000000000000000000000000000000000600052602260045260246000fd5b60006002820490506001821680611da957607f821691505b60208210811415611dbd57611dbc611d62565b5b50919050565b7f43616e6e6f74207365742061206c696d69742062636f7a20796f7520646f6e2760008201527f7420686176652074686174206d7563682062616c616e63650000000000000000602082015250565b6000611e1f603883611757565b9150611e2a82611dc3565b604082019050919050565b60006020820190508181036000830152611e4e81611e12565b9050919050565b7f596f752063616e6e6f74206d696e652074686520746f6b656e2066726f6d206360008201527f6f6e747261637420697473656c66000000000000000000000000000000000000602082015250565b6000611eb1602e83611757565b9150611ebc82611e55565b604082019050919050565b60006020820190508181036000830152611ee081611ea4565b9050919050565b7f596f752063616e6e6f74206275726e2074686520746f6b656e2066726f6d206360008201527f6f6e747261637420697473656c66000000000000000000000000000000000000602082015250565b6000611f43602e83611757565b9150611f4e82611ee7565b604082019050919050565b60006020820190508181036000830152611f7281611f36565b9050919050565b7f596f7520646f6e277420686176652074686174206d756368206f6620746f6b6560008201527f6e20746f206275726e0000000000000000000000000000000000000000000000602082015250565b6000611fd5602983611757565b9150611fe082611f79565b604082019050919050565b6000602082019050818103600083015261200481611fc8565b9050919050565b7f446f6e277420686176652074686174206d756368206f6620746f6b656e20746f60008201527f207472616e736665720000000000000000000000000000000000000000000000602082015250565b6000612067602983611757565b91506120728261200b565b604082019050919050565b600060208201905081810360008301526120968161205a565b9050919050565b7f446f6e2774206861766520656e6f7567682062616c616e636520746f20696e6360008201527f7265617365000000000000000000000000000000000000000000000000000000602082015250565b60006120f9602583611757565b91506121048261209d565b604082019050919050565b60006020820190508181036000830152612128816120ec565b905091905056fea264697066735822122031148051ec35777fc02b4fdc9a6637c4d4d1154fe756fa3bf29b8d6c4e25832f64736f6c63430008090033",
  "linkReferences": {},
  "deployedLinkReferences": {}
}